:100000000C94F1060C940E070C940E070C94BB3460
:100010000C940E070C940E070C940E070C940E070C
:100020000C940E070C940E070C946A1C0C94261C5E
:100030000C94062C0C940E070C940E070C940E07CF
:100040000C940E070C940E070C940E070C940E07DC
:100050000C940E070C94431D0C940E070C940E0781
:100060000C940E070C940E070C940E070C940E07BC
:100070000C940E070C940E070C940E070C940E07AC
:100080000C940E070C940E070C940E070C940E079C
:100090000C940E070C940E070C940E070C940E078C
:1000A0000C940E070C940E070C940E070501090220
:1000B000A10185020901A1000509190129081500FE
:1000C0002501950875018102050109300931158165
:1000D000257F95027508810609381581257F9501D0
:1000E00075088106050C0A38021581257F95017572
:1000F000088106C0C00660FF0961A1010962150000
:1001000026FF009520750881020963150026FF006F
:10011000952075089102C005010906A1010507197E
:10012000E029E71500250195087501810295017503
:100130000881010507190029FF150026FF00950613
:100140007508810005081901290515002501950587
:1001500075019102950175039101C0000000000036
:10016000000000000000000000000000000000008F
:100170000000000000000000000000000000007E01
:100180000F00D4FFFFFFC700000078000000000050
:100190000000002A2B2800000000000000000000E2
:1001A00000000000000029000000002C1E34202167
:1001B0002224342627252E362D3738271E1F2021AE
:1001C00022232425263333362E37381F040506070D
:1001D00008090A0B0C0D0E0F101112131415161727
:1001E00018191A1B1C1D2F3130232D350405060745
:1001F00008090A0B0C0D0E0F101112131415161707
:1002000018191A1B1C1D2F3130354C00DA0281FFE2
:10021000D9F1DB20A4A62EAF00A0C0D30000A1C856
:10022000D30000AED580A81F408D142000783C1E5E
:100230001E140A0500010101010101010101020270
:100240000202020202020203030303030303030484
:10025000040404040404050505050506060606064F
:10026000070707070708080808090909090A0A0A09
:100270000B0B0B0C0C0C0D0D0D0E0E0E0F0F0F10AB
:100280001011111112121313141415151616171735
:10029000181819191A1A1B1B1C1D1D1E1E1F2020A1
:1002A000212222232424252626272829292A2B2CEB
:1002B0002D2D2E2F30313232333435363738393A0E
:1002C0003B3C3D3E3F404142434445464748494A06
:1002D0004C4D4E4F50515354555658595A5B5D5ED4
:1002E0005F616264656668696B6C6D6F707273756F
:1002F00077787A7B7D7E8082838587888A8C8E8FD3
:1003000091939596989A9C9EA0A2A3A5A7A9ABAD00
:10031000AFB1B3B5B7BABCBEC0C2C4C6C9CBCDCFEE
:10032000D1D4D6D8DBDDDFE2E4E7E9EBEEF0F3F59C
:10033000F8FAFDFF2223252628292A2C2D2F3032DA
:10034000333536383A3B3D3E4042434547494A4CB7
:100350004E5051535557595A5C5E606264666869E5
:100360006B6D6F71737577797B7D7F8183858789ED
:100370008A8C8E90929496989A9C9E9FA1A3A5A7F2
:10038000A8AAACAEAFB1B3B4B6B8B9BBBCBEBFC11E
:10039000C2C3C5C6C7C9CACBCCCDCED0D1D2D2D3A9
:1003A000D4D5D6D7D7D8D9D9DADADBDBDBDCDCDCBD
:1003B000DCDCDDDDDDDDDCDCDCDCDCDBDBDBDADA80
:1003C000D9D9D8D7D7D6D5D4D3D2D2D1D0CECDCCF7
:1003D000CBCAC9C7C6C5C3C2C1BFBEBCBBB9B8B60C
:1003E000B4B3B1AFAEACAAA8A7A5A3A19F9E9C9A97
:1003F00098969492908E8C8A89878583817F7D7B65
:1004000079777573716F6D6B6968666462605E5C45
:100410005A5957555351504E4C4A4947454342400B
:100420003E3D3B3A3836353332302F2D2C2A2928A1
:100430002625232200AF00AE6162636465666768AB
:10044000696A6B6C6D6E6F707172737475767778A4
:10045000797A31323334353637383930524542546F
:100460005F2D3D5B5D5C233B27602C2E2F202027DA
:1004700000204B00202043004B6579203A20205279
:100480000020204400303020205300202020202055
:100490004350490042616C6C3A002F00204D563A9F
:1004A000004C617965723A008081828384858687F9
:1004B00088898A8B8C8D8E8F9091929394A0A1A223
:1004C000A3A4A5A6A7A8A9AAABACADAEAFB0B1B284
:1004D000B3B4C0C1C2C3C4C5C6C7C8C9CACBCCCDDA
:1004E000CECFD0D1D2D3D40029001E001F000000EF
:1004F00020002100220000004C0014001A0000001F
:1005000008001500170000002B0004001600000072
:10051000070009000A00000021521D001B00000016
:1005200006001900050030000100E000E2000000B4
:10053000E30091412C4290432D002700260000004B
:100540002500240023000000890013001200000091
:100550000C0018001C000000240233000F000000F3
:100560000E000D000B000000E50038003700000011
:1005700036001000110032004600E60001000000C5
:10058000E700914128422A0029021E022F000000A4
:1005900020022102220200004C0214021A02000072
:1005A00008021502170200002B02040216020000C6
:1005B000070209020A02000001001D021B020000DE
:1005C00006021902050230020100E002E202000008
:1005D000E30201000100010087022602250200005B
:1005E000340223022E0000008902130212020000CE
:1005F0000C0218021C0200001F0234000F0200004F
:100600000E020D020B020000E50238023702000064
:1006100036021002110232020100E602010000005F
:10062000E70201000100010001003A003B00000068
:100630003C003D003E0000000100010024000000DD
:10064000250026000100000001000100210000003B
:100650002200230033020000010001001E00000000
:100660001F0020002D0225020100010027000000CC
:100670003700010001000100440043004200000077
:10068000410040003F000000450001004F00000015
:1006900052005000010000000100D300D200000011
:1006A0005100D1004B0000000100010001000000DA
:1006B000010001004E0026020100010001000000BF
:1006C0000100010001004C00207801000100000041
:1006D0000100010001000000217823782578000046
:1006E0002778010001000000227824782678000095
:1006F000287801000100000001000100097E0000CF
:10070000087E077E067E037C007C0100500000000E
:10071000510052004F00010030782F782E780000F1
:100720002D782C782B78000001000100347800002F
:100730003378327831780000007E017E047E00003C
:10074000027E037E057E0000010001004D000000D6
:100750004B004E004A00037C007C010001000000B9
:10076000010001002A00010000000000000000005C
:100770000000000000000000000000000000000079
:100780000000000000000000000000000000000069
:100790000000000000000000000000000000000059
:1007A0000000000000000000000000000000000049
:1007B0000000000000000000477E00000000000074
:1007C0000000000000000000467E0000447E0000A3
:1007D000437E000000000000487E457E417E000010
:1007E000427E407E00000000497E000000000000C4
:1007F00000000000000000000000000000000000F9
:10080000000000000000000009025B00030100A0DE
:10081000FA0904000001030101000921110100018E
:1008200022440007058103080001090401000203B6
:1008300000000009211101000122220007058203A6
:100840002000010705030320000109040200010341
:10085000000000092111010001224900070584035D
:100860002000011201000200000008575900010099
:10087000010102000114034B006500790062006170
:10088000006C006C00360031000000100359006F4E
:100890000077006B00650065007300000004030929
:1008A000040000000000003E5B4F5B3E003E6B4FCB
:1008B0006B3E001C3E7C3E1C00183C7E3C18001C1D
:1008C000577D571C001C5E7F5E1C0000183C180002
:1008D00000FFE7C3E7FF00001824180000FFE7DB74
:1008E000E7FF0030483A060E002629792926004005
:1008F0007F05050700407F05253F005A3CE73C5A2D
:10090000007F3E1C1C0800081C1C3E7F0014227F38
:100910002214005F5F005F5F0006097F017F000017
:100920006689956A0060606060600094A2FFA2948E
:100930000008047E04080010207E20100008082A09
:100940001C0800081C2A0808001E10101010000CBB
:100950001E0C1E0C0030383E383000060E3E0E06CF
:100960000000000000000000005F00000000070021
:10097000070000147F147F1400242A7F2A1200230A
:10098000130864620036495620500000080703002F
:1009900000001C224100000041221C00002A1C7F94
:1009A0001C2A0008083E080800008070300000087B
:1009B0000808080800000060600000201008040219
:1009C000003E5149453E0000427F400000724949C7
:1009D0004946002141494D33001814127F10002769
:1009E00045454539003C4A49493100412111090733
:1009F00000364949493600464949291E000000147D
:100A000000000000403400000000081422410014DF
:100A1000141414140000412214080002015909069C
:100A2000003E415D594E007C1211127C007F494905
:100A30004936003E41414122007F4141413E007F15
:100A400049494941007F09090901003E414151736B
:100A5000007F0808087F0000417F410000204041DE
:100A60003F01007F08142241007F40404040007F4A
:100A7000021C027F007F0408107F003E4141413E7E
:100A8000007F09090906003E4151215E007F0919D6
:100A900029460026494949320003017F0103003FEE
:100AA0004040403F001F2040201F003F4038403F53
:100AB00000631408146300030478040300615949B7
:100AC0004D4300007F414141000204081020000016
:100AD0004141417F00040201020400404040404087
:100AE000000003070800002054547840007F284489
:100AF000443800384444442800384444287F0038AF
:100B0000545454180000087E0902001824241C784C
:100B1000007F080404780000447D4000002040402D
:100B20003D00007F102844000000417F4000007C11
:100B300004780478007C080404780038444444387D
:100B4000007C1824241800182424187C007C080435
:100B500004080048545454240004043F4424003C36
:100B60004040207C001C2040201C003C4030403C89
:100B7000004428102844004C9090907C0044645419
:100B80004C440000083641000000007700000000DF
:100B900041360800000201020402003C2623263CE4
:100BA0000000000000000000000000000000000045
:100BB000000000000000000000C0F0F88C86C6E7CE
:100BC000FFFFFFFFFFFFFEFCFCF8E080000000F0ED
:100BD000F0F00000C0E0F0707000000000000000C5
:100BE000000000000000000000000000000000F80D
:100BF000F8F8000000000000000000000000000005
:100C00000000000000F8F8F80000F8F8F800000014
:100C1000000000000000000000000000000000E0F4
:100C2000F0F0F0E0ECEEF7F37020007C7C7C7E00CE
:100C30007E7E7E7F7F7F000080C0E07E5B4F5BFE1C
:100C4000C00000C000DCD7DEDEDED7DC00C0000064
:100C50000000000000000000000000000000000094
:100C60000000000000000000000000000000000084
:100C7000000080E07078686C64C7C7C7C7C7C7E763
:100C80003F1F0F3FFFFFFFFFFFFF3F0F000000FF71
:100C9000FFFF1E3FFFF3E1800000F8FCFE36363612
:100CA0003EBCB8000E3EFEF080F0FE3E0E0000FF9F
:100CB000FFFF060606FEFEFC7000E6F6F63636FE80
:100CC000FEFC000000FFFFFF0000FFFFFF00000030
:100CD0000000000000000000000000000000000F05
:100CE0001F3F7F7F7F7F7F3F1E0C001F1F1F3F0026
:100CF0003F3F3F7F7F7F00307B7F78302020307800
:100D00007F3B0003000F7F0F0F0F7F0F00030000DA
:100D100000000000000000000000000000000000D3
:100D200000000000000000000000000000000000C3
:100D3000003C7F6360E0C0C0C0C0C0C0C0C0FFFF57
:100D4000C06030180F03030301000000000000031F
:100D50000303000000030303030001030303030371
:100D6000030301007070393F1F07010000000001FC
:100D7000030303030303030100000103030303034D
:100D8000030100000003030300000303030000004D
:100D90000000000000000000000000000000000053
:100DA0000000000000000000000000000000000043
:100DB0000000000000000000000000000000000033
:100DC0000000000000000000000000000000000023
:100DD0000000000000000000000000000000000013
:100DE000000011241FBECFEFDAE0DEBFCDBF11E05F
:100DF000A0E0B1E0EAE1FFE602C005900D92A63B5B
:100E0000B107D9F726E0A6EBB1E001C01D92AD36DF
:100E1000B207E1F70E942D2C0C9439370C94000096
:100E20008F929F92AF92BF92CF92DF92EF92FF92FA
:100E300090917801981305C090915404903209F470
:100E40004BC08093780190E290935404C82ED12C2B
:100E5000F12CE12C10925304C701B6012AE030E0D6
:100E600040E050E00E945036605D603331F0C114C4
:100E7000D104E104F10409F460E26093520460E2F9
:100E80008AE0C816D104E104F10490F08AE0882ECB
:100E9000912CA12CB12CC701B601A50194010E948F
:100EA0005036CA01B901A50194010E945036605D17
:100EB0006093510420E284E6C816D104E104F104F1
:100EC00048F0C701B60124E630E040E050E00E945F
:100ED0005036205D2093500480E594E0FF90EF9021
:100EE000DF90CF90BF90AF909F908F900895FC01BE
:100EF000909129048181981321C080912A0488232C
:100F000019F0928189131AC080912B04882319F05B
:100F10009381891313C080912D04882319F0958142
:100F200089130CC080912C04882351F091E0248116
:100F3000281301C090E0892F8170089581E0FCCFD3
:100F400080E0FACF482F209127049091EE0357E0DC
:100F5000291302C080E0089530E0529FF001539FB2
:100F6000F00D1124E151FC4F8181681306C080818E
:100F7000481303C085818111EECF2F5F3F4F27704B
:100F8000E7CFE8EDF0E080818E7F80831092E20071
:100F90001092DA001092E100A0EEB0E08C91816036
:100FA0008C9380818F77808319BCA7EDB0E08C9102
:100FB0008E7F8C9380818F7E80831092D6030895DC
:100FC0002091E4003091E50095E6A9012091EC0024
:100FD000822F817020FF06C08091E80080FF06C04C
:100FE00080E008952091E80022FD1AC08091E4037A
:100FF000882389F0853089F08091EB0085FD0FC052
:101000002091E4003091E50042175307F9F2915026
:10101000E1F684E0089582E0089583E0089581E098
:1010200008958091E60387FF13C08091E80082FF56
:1010300006C08091E8008B778093E80004C080911F
:10104000E4038111F2CF08958091E4038823D9F35A
:101050008091E80080FFF8CF8091E8008E77ECCF98
:10106000982F9093E900242F762F50E0891731F0C4
:101070007091EC002091ED005091F00021FD07C02F
:101080009F5F973071F78093E90081E00895309178
:10109000EB003E7F3093EB003091ED003D7F3093CD
:1010A000ED003091EB0031603093EB007093EC0079
:1010B0002093ED005093F0002091EE0027FDE0CF4B
:1010C00080E00895B0E0A0E0E8E6F8E00C94F535A3
:1010D000C8EDD0E088818F7E8883E7EDF0E08081E5
:1010E0008160808384E082BF81E08093D603888121
:1010F0008E7F888302EE10E0F80110821092DA00F1
:1011000081EEC82ED12CF601108288818F778883DA
:1011100088818068888388818F7D888319BC10923C
:10112000E4031092E5031092E3031092E20390EEC1
:10113000E92EF12CF70180818B7F8083888181608B
:10114000888342E060E080E00E943008F601808100
:101150008E7F8083F80180818160808380818860B8
:101160008083F70180818E7F80838881806188837E
:10117000CDB7DEB7E8E00C941136FC018091EC03AA
:101180009091ED0386179707A0F06115710529F47A
:101190009091E8009E779093E80090E061157105CA
:1011A00051F4911108C08091E80082FF34C080E0C2
:1011B0000895BC01F2CF8091E4038823C1F185300A
:1011C000C1F18091E80083FD30C08091E80082FD8C
:1011D000EACF8091E80080FFE1CF8091F300209179
:1011E000F200382F6115710519F02830310558F0DB
:1011F00091E02830310509F090E02091E8002E7749
:101200002093E800CBCF81918093F1006150710968
:101210002F5F3F4FE7CF8091E403882341F0853073
:1012200041F08091E80083FFBECF81E0089582E025
:10123000089583E00895089508958091D90308954D
:1012400087E797E7909301088093000888E19AE088
:101250000FB6F894A895809360000FBE909360003D
:10126000FFCF2FB7F8946091D2037091D303809190
:10127000D4039091D5032FBF0895FC01680F791F07
:101280008FEF91E32191822728E030E087FF09C0AA
:10129000880F892721503109C9F7E617F70791F719
:1012A0000895880FF7CFFA01811101C0FB0109955C
:1012B0000895E3E9F3E011828281846082830895D6
:1012C00080919603982F9E7F61F481708260809355
:1012D000960380919903893718F088E780939903E2
:1012E00008958231B0F381708061F1CFAF92BF92E7
:1012F000DF92EF92FF920F931F93CF93DF93082F0C
:10130000162FE901E42FF0E0EC5CFD4F611110C0F5
:10131000E4915E2F4E2F4983E8835A83DF91CF916A
:101320001F910F91FF90EF90DF90BF90AF900895C5
:10133000E62EF12C4491D42EE42FF0E026E0829F9B
:10134000C00111242FEF30E0B9010E94D735802F62
:1013500090E0880F991F55E5569FD001579FB00D1B
:1013600011248A1B9B0B982F990F890F5901AE18D6
:10137000BF08AE9ED001AF9EB00DBE9EB00D112431
:101380005B2F189F80011124012F11275901A01AEA
:10139000B10AAE9E8001AF9E100DBE9E100D1124AD
:1013A0005901A81AB108AE9CC001AF9C900DBE9C1B
:1013B000900D1124892F9927281B390B2E9FC001CE
:1013C0002F9F900D3E9F900D1124E92F62307105E3
:1013D000A1F050F46115710509F49DCF61307105DC
:1013E00081F0EB2F512F97CF6430710569F080F0B9
:1013F0006630710509F48FCFF4CFE42F4B2F592FAE
:101400008ACFE42F412F87CFEB2F542F492F83CF43
:101410004B2F5D2DE12F7FCFCF93DF93EEE2F4E0F2
:1014200083819481A581B681E90188839983AA8308
:10143000BB831482138216821582DF91CF910895A7
:1014400080E0089563E070E08EE192E00E943D0943
:1014500090911D02891318C0E0911E02EB30A4F494
:1014600088E0E802F0011124E65FFE4F0680F78174
:10147000E02D309749F021E432E04091200261E212
:1014800072E080911F0209950895EAE0F1E0A8E07A
:10149000B2E057968C91579780A758968C9183AF5E
:1014A00008959091780292FF10C041E0282F247196
:1014B000243009F040E031E0282F2871283009F06D
:1014C00030E0431711F02CE0822793FF10C041E079
:1014D000282F2471243109F040E031E0282F2871B1
:1014E000283109F030E0431711F02CE082273091C9
:1014F000790230FF10C051E0282F2171213009F00E
:1015000050E041E0282F2871283009F040E05417BE
:1015100011F029E0822731FF10C041E0282F21710E
:10152000213109F040E031E0282F2871283109F0FD
:1015300030E0431711F029E0822794FD877E08955B
:1015400082389105B9F1B0F48133910509F47DC079
:1015500048F48932910509F46DC08A32910509F485
:101560007BC008958533910509F45FC089339105E7
:1015700009F10895833E9105D9F138F4803E910533
:1015800029F1823E910579F10895863E9105D9F1C0
:10159000873E910509F43EC0843E910541F52091B6
:1015A000790221FF24C08091780284FD19C087EE62
:1015B00090E0089520917802237009F05AC020919C
:1015C000790223FF14C089E290E008952091780207
:1015D00020FD38C03091790230FF09C024FF43C09C
:1015E00090E080E008952091780222FDF7CF0895E1
:1015F0002091780222FD3AC03091790230FD39C045
:1016000024FFF5CFEDCF2091780223FFF0CF24FD0A
:10161000E7CFCDCF2091780223FD2EC03091790203
:1016200031FFEECF84EE90E008952091780225FFFF
:10163000DECFC9CF2091780225FD21C0209179020B
:1016400023FFD5CF89E390E0D2CF2091780226FF07
:10165000CECF8AE290E008952091780226FFC7CF8E
:1016600081E390E0089583EE90E0089582EE90E0AB
:10167000089580EE90E0089586EE90E0089585E369
:1016800090E008951F93CF93DF930E94A00AEC018E
:10169000C11582E5D80708F03FC0C11590E5D9070C
:1016A00008F0C2C0C83ED105C0F4C03ED10580F4E8
:1016B000C53AD10548F4C430D10550F4C130D10544
:1016C00039F0D0E0C0E004C0CD3CD105D0F3D06506
:1016D000CE01DF91CF911F910895C11580E4D80705
:1016E00008F053C0C11590E2D90708F0B7C0C11582
:1016F00081E0D80730F38D2F0E94510A182FCE01B8
:1017000099270E94A00AC12FD0E0DC2FCC27CC273C
:10171000DF71C82BD92BDCCFC03892E5D907A8F4EC
:10172000C03682E5D80708F063C0C03492E5D90717
:1017300008F049C0C03282E5D80788F1CF71D0E007
:10174000DC2FCC27C16FD06AC3CFC03C92E5D9074C
:1017500080F48C2F8F71C03AD24508F45EC00E948D
:10176000510AC82FD0E0DC2FCC27CC27DF71D06204
:10177000AFCFC03E82E5D80708F0A3CFDC2FCC273F
:10178000CC27DF71C06FD06AA3CFCE0199270E940A
:10179000A00ACC27DF70C82BD92BD06A99CF2C2F69
:1017A0002695269590E2299F900111248C2F837015
:1017B000C1E0D0E002C0CC0FDD1F8A95E2F7C22B5A
:1017C000D32BDD6885CF2C2F26952695277080E2B8
:1017D000289F900111248C2F8370C1E0D0E002C0BB
:1017E000CC0FDD1F8A95E2F7C22BD32BDC6870CFBC
:1017F0002C2F26952695277090E2299F9001112481
:101800008C2F8370C1E0D0E002C0CC0FDD1F8A9521
:10181000E2F7C22BD32BDA685BCFC82FD0E0DC2FE6
:10182000CC27C46FD06A54CF8C2F8F710E94510A7D
:1018300055E0D695C7955A95E1F7CF70D0E0DC2FEB
:10184000CC27282F30E084FF05C044E0220F331F4F
:101850004A95E1F7C22BD32BD0693ACF8D2F8F71E8
:101860000E94510A182FCE0199270E94A00AC12F69
:10187000D0E0DC2FCC27CC27DF71C82BD92B77CF3A
:1018800080959091D70398239093D70308958091E2
:1018900027049091EE03981301C008958F5F87701D
:1018A000FACF9A3080F5883070F548E0949F900127
:1018B0001124820F932F911D682F677023E0969556
:1018C00087952A95E1F7FC01EE0FFF1FE80FF91F3E
:1018D000EC52FE4F50E040E080E0219130E0062ED7
:1018E00002C0369527950A94E2F721703327042E1B
:1018F00001C0220F0A94EAF7822B4F5F5F4F4330FB
:10190000510559F7089580E008959A3098F5883088
:1019100088F548E0949F90011124820F932F911D28
:10192000282F277041E001C0440F2A95EAF723E0F1
:10193000969587952A95E1F7FC01EE0FFF1FE80FBA
:10194000F91FEC52FE4F90E080E070E05191DF0112
:1019500011979B01082E02C0369527950A94E2F74D
:10196000217021952527242325272C930196833048
:10197000910561F708958093A40308959091A403BD
:1019800021E030E0F90101C0EE0F8A95EAF7D901B4
:1019900002C0AA0FBB1F6A95E2F7EA2B01C0220F13
:1019A0004A95EAF7892F8E23E81305C0292B822F49
:1019B0000E94BB0C089520952923F9CF21E030E047
:1019C00001C0220F8A95EAF720958091A403822313
:1019D0000E94BB0C08959091F90180958923809312
:1019E000F901282F277069F4891759F0909179022D
:1019F00092FF07C08695869586950E94DE0C109210
:101A0000F901089521E030E001C0220F8A95EAF73C
:101A10008091A403822B0E94BB0C08958093040242
:101A20000895982F92959F7011F0892F94E0282F98
:101A30002695269511F09E5F822F869509F09F5F6F
:101A4000892F0895CF93C82F80913B048C1751F0B4
:101A50000E94310960933C0470933D0480933E04DE
:101A600090933F04C0933B04CF910895B0E0A0E071
:101A7000ECE3FDE00C94F535FC01EB0190914004A2
:101A8000911101C094E06081718191509B01092EF8
:101A900002C0359527950A94E2F7D901092E02C0B4
:101AA000AA0FBB1F0A94E2F76A1B7B0B718360834A
:101AB000628173818B01092E02C0159507950A94E6
:101AC000E2F7D80102C0AA0FBB1F9A95E2F76A1B82
:101AD0007B0B7383628381E80138BFEF1B072CF017
:101AE000802F003811050CF08FE78D8321389FEF90
:101AF000390754F1203831054CF5922F91959C838C
:101B0000442319F081958D832C830E9431092D8106
:101B1000211103C02C812223D9F0609341047093DA
:101B200042048093430490934404809145049BE0D5
:101B3000980F973120F4080F009345041D82CDB70C
:101B4000DEB7E8E00C94113621E8D7CF2FE7D5CFE8
:101B5000C0904104D0904204E0904304F0904404CB
:101B60006C197D098E099F096436710581059105FF
:101B7000E0F210924504D9CFFC01DB0122813381D0
:101B800091E821388FEF38072CF0922F203831055B
:101B90000CF09FE712969C93129720813181213897
:101BA0008FEF3807A4F0203831059CF413962C935E
:101BB0001397442339F0919512969C93129721958F
:101BC00013962C931182108213821282089521E8B9
:101BD000EDCF2FE7EBCF382F20E287FF02C0319502
:101BE0002DE24AE0832F642F0E942E36905D909361
:101BF000CD0181110BC02093CC0120E22093CB01B9
:101C000020E22093CA018AEC91E00895642F0E949B
:101C10002E36905D9093CC01832F64E60E942E3681
:101C2000882361F3805D8093CB01EBCF9C01860F0D
:101C3000971F37FD07C077FD04C097FF02C08FEFE5
:101C40009FE7089577FFFDCF97FDFBCF80E090E8F9
:101C50000895E82FE295EF70F0E031A1282F2F7062
:101C600081E090E001C0880F2A95EAF7382B31A374
:101C700092A18095892382A30895E82FE295EF70C1
:101C8000F0E031A1282F2F7081E090E001C0880F93
:101C90002A95EAF7982F9095932391A392A1892BE7
:101CA00082A30895B0E0A0E0E8E5FEE00C94F535ED
:101CB0007C016B018091600601E010E08A3010F435
:101CC0000AE010E0C1E0D0E066E676E0C701F60188
:101CD0000995811104C021960C171D072CF4CDB76E
:101CE000DEB7E8E00C941136CC9F9001CD9F300D0B
:101CF000300D112490E080E045E34A95F1F70000B3
:101D0000019682179307C1F7DFCF0F931F93CF93ED
:101D1000DF938B01EA019091E403943061F58093A5
:101D2000E9008FEF9091E800815095FD06C095ED98
:101D30009A95F1F700008111F5CF8091E80085FFB9
:101D40001AC00E94E007811111C08091E80085FD52
:101D500006C08091E8008E778093E800F2CFF8010A
:101D600081918F018093F100219779F78091E800AC
:101D70008E778093E800DF91CF911F910F910895A6
:101D800046E050E0BC0184E00E94850E0895CF93A8
:101D9000DF93EC0148E050E0BC0181E00E94850E39
:101DA00088E0FE01AAEDB3E001900D928A95E1F77B
:101DB000DF91CF910895609174018091960380FF27
:101DC00020C08091730143E0849FC001112481559C
:101DD0009D4F539A2BB1277F3BB138605FB7F89482
:101DE000FC01649FE00DF11D1124BF016817790704
:101DF000D1F45FBF8FE594E00197F1F700C00000D8
:101E00000895809175019091760123E0829FF00101
:101E10001124E155FD4F8917A0F61182108212821C
:101E20008F5F3396F8CFFC014191CF01E8E03BB9D9
:101E3000000000C047FF2BB9440F000000C000C0E5
:101E400000C02BB900C0EA9591F7D0CF90919603CE
:101E500090FF0EC0909175012091760133E0939F21
:101E6000F0011124E155FD4F921718F00E94DB0E8E
:101E700008958183608342839F5F3396F5CFA3E00B
:101E8000B0E0E5E4FFE00C94FB359091960390FF01
:101E90000DC0493708F048E79E012F5F3F4F0E9471
:101EA00076094B8169818A810E94260F2396E2E0A0
:101EB0000C941736CF93DF93EC01E6E9F3E043810E
:101EC00062818C810E943F0F8C818F5F8C83DF91B8
:101ED000CF910895CF93DF93EC01EC81F0E0EC5CBF
:101EE000FC4F4491E6E9F3E0628181810E943F0F5B
:101EF0008C818F5F8C83DF91CF910895E6E9F3E0C9
:101F000080818E7F80830E945909E3E9F3E082811A
:101F1000816082830E94DB0E089580910702811107
:101F200019C082E390E02091E30027FD10C0EFE3A9
:101F3000FCE93197F1F700C000000197A1F782E0BA
:101F4000809307020E94C1071092E40303C081E05E
:101F50008093070281E090910702913011F080E0B8
:101F6000089508950E948D0F882359F0E091CF03C2
:101F7000F091D003309729F00190F081E02D099580
:101F8000089580E008950F931F930E948D0F88237A
:101F900029F00E9431091F910F9108950E94310983
:101FA00000917202109173022091740230917502B7
:101FB000600F711F821F931FEECF57985F9A879A09
:101FC0008F9825E02A95F1F7000089B187988F9ABC
:101FD00090EA9A95F1F790E0880F892F881F990B66
:101FE00021E0822781700895CF93DF9380912E04A2
:101FF000C5E28111C2E280912F04D0E0882329F04C
:1020000080913004D5E28111D2E20E94DD0F81116E
:102010000FC08D2F80937301C0937401CD0F109268
:102020007501C0937601C0937701DF91CF91089538
:1020300080E0F0CF80912E04F90180830E94F40F9C
:102040000895CF938FE992E00E947707C82F8823E5
:1020500079F0E091CF03F091D003309749F082E01E
:10206000809328040480F581E02D88E294E00995AE
:102070009091290486E0E8E2F4E0DF01282F1D9228
:102080002A95E9F790932904AFE9B2E001900D9207
:102090008A95E1F781E0C11103C0911101C080E090
:1020A0008170CF9108952FE2280F283078F481E0D5
:1020B00090E001C0880F2A95EAF720912904662351
:1020C00031F0822B809329040E942110089580957D
:1020D0008223F8CFCF93DF93682F81E06A3019F025
:1020E0006D3031F480E00E94F810DF91CF910895B7
:1020F00080915E0690915F0626E0FC01A8E5B6E0BF
:1021000001900D922A95E1F7603E08F458C026E050
:10211000FC0111922A95E9F7C0915E06D0915F0605
:1021200046E050E0BE0188E596E00E94CB369E0175
:1021300028553440892B41F1C90145E09695879592
:102140004A95E1F741E050E0BA0102C0660F771FFF
:102150008A95E2F7CB016091560470915704862B63
:10216000972BB9016B5F7F4FE5E076956795EA9510
:10217000E1F702C0440F551F6A95E2F7842B952BB7
:1021800090935704809356042A5F3F4F4091550423
:10219000642F70E0C9010E94D735481B463010F407
:1021A000240F311D211572E0370710F030E020E0D8
:1021B000285A3B4F30935F0620935E0696CFF6E099
:1021C0006F9FB00111246F55774F46E050E00E9499
:1021D000B536A2CFCF93DF93EC01FE01849181113C
:1021E00003C0DF91CF9108950E946A102196F5CF28
:1021F000CF93382FE0915E06F0915F06E855F440EA
:1022000020915504622F70E0CF010E94D735281B22
:10221000822F332361F066E00E942236C82FC1501E
:1022200010F4CF91089580E20E946A10F8CF9F01C8
:10223000280F311D2115324018F080E0F0E0E0E079
:102240008E0F9F2F911D885A9B4F90935F0680930E
:102250005E06E7CF8091D70390910302892B80938C
:10226000B80190910202992391F0892B8093B801D3
:1022700020E08AEB91E0FC013191CF0131112F5F19
:10228000F1E0803C9F07B9F721111092020248E06B
:1022900050E06AEF71E088EB91E00E94CB36892B29
:1022A000A9F088E0E8EBF1E0AAEFB1E001900D922F
:1022B0008A95E1F7E091CF03F091D003309731F0A8
:1022C0000280F381E02D88EB91E009950895EAEB17
:1022D000F1E086E0DF011D928A95E9F71092030292
:1022E0000E942A110895AAE2B0E0E9E7F1E10C9416
:1022F000FA3586EE93E02091F100DC012D93CD01BB
:10230000B3E08E3E9B07B9F78091E703833009F471
:1023100072C0B8F4813009F449C0823009F4B5C004
:102320008091E80083FF8DC28091E6039091E703DE
:102330009A3008F086C2E92FF0E0E55CF84C0C9486
:1023400072368A3009F490C08B3009F471C089303C
:1023500039F78091E603813219F78091EA03909171
:10236000EB03009711F00297D9F68091E800877F80
:102370008093E8008091E80082FF38C09091F300DC
:102380008091F200029731F48091F100813011F0D8
:10239000863021F48091F1008093D9038091E80088
:1023A0008B778093E8000E941108BACF8091E603F2
:1023B000813A09F0B5CF8091E800877F8093E800EB
:1023C0008091EA039091EB03892B61F468E08AED38
:1023D00093E070E00E94BD088091E8008B778093C5
:1023E000E8009ECF60E090E080E0F3CF8091E403CE
:1023F0008111C0CF95CF8091E603813A09F090CF4B
:102400008091EA039091EB03892B09F089CF8091A9
:10241000E800877F8093E8008091E80080FFFCCF90
:10242000809172018093F1008091E8008E77B9CF9E
:102430008091E603813209F073CF8091EA03909195
:10244000EB03892B09F06CCF8091E800877F8093A4
:10245000E8000E9411088091E803809372011092B5
:10246000D7030E9467115CCF8091E603813209F0A7
:1024700057CF8091E800877F8093E8000E94110881
:102480008091E9038093D8034BCF8091E603813A92
:1024900009F046CF8091E800877F8093E800809123
:1024A000E80080FFFCCF8091D803BCCF803899F042
:1024B000823809F0C6C18091EA038F70873008F036
:1024C000C0C18093E9008091EB0085FB882780F9EB
:1024D0001092E90006C08091E2039091E30391110C
:1024E00082609091E800977F9093E8008093F100DC
:1024F0001092F1008091E8008E779FC1882309F443
:102500008DC1823009F09DC18091E803811190C195
:102510008091EA038F702FEF280F263008F091C1C9
:102520008093E9002091EB0020FF82C1933031F4C9
:102530008091EB0080628093EB007AC19091EB0078
:1025400090619093EB0021E030E001C0220F8A956A
:10255000EAF72093EA001092EA008091EB0088608D
:10256000EACF81116EC11091E8031F778091E300DB
:102570008078812B8093E3008091E800877F8093AF
:10258000E8000E9411088091E80080FFFCCF809154
:10259000E30080688093E30082E0111183E0809380
:1025A000E4034FC18058823008F04BC12091E8030A
:1025B0003091E9032C3DE3E03E07A1F583E08A83F7
:1025C0008AE289834FB7F894DE01139620E03EE05B
:1025D00051E2E32FF0E050935700E49120FF03C055
:1025E000E295EF703F5FEF708E2F90E0EA30C0F021
:1025F000C7968D939D932F5F243159F74FBF8091DC
:10260000E800877F8093E8006AE270E0CE010196DF
:102610000E94BD088091E8008B778093E80011C18B
:10262000C096E7CF8091EA039091EB03432F5527A3
:102630004330510509F44AC078F54130510509F499
:102640007AC08BE590E0E8E0F8E04230510509F00F
:10265000F8C02091E800277F2093E8002091EC0348
:102660003091ED038217930708F49C0140E0211597
:10267000310509F065C0411163C08091E80082FD19
:10268000C9CF8091E403882329F2853019F2809123
:10269000E80083FFF2CFBECF4132510509F43CC0C0
:1026A0004232510509F0CDC08330910508F0C9C010
:1026B000FC01EE0FFF1FE655FE4F0190F081E02D6B
:1026C00089559E4FDC018C9190E01AC03327213050
:1026D0003105D1F02115310561F02230310509F0C5
:1026E000B0C0E5E7F8E0E4918E2F90E0E5E7F8E090
:1026F00007C0EDE9F8E0E4918E2F90E0EDE9F8E015
:10270000009709F49EC0A5CFEBE8F8E0E4918E2F86
:1027100090E0EBE8F8E0F4CF8330910508F091C049
:10272000880F991FFC01E055FE4F0190F081E02DCC
:1027300089E090E08ECF82E190E0E3E6F8E089CF97
:102740008091E403882309F465CF853009F462CFD2
:102750008091E80083FD5ECF8091E80082FD8DCFFF
:102760008091E80080FF83CF9091F3008091F20088
:102770002115310519F08830910550F041E0089796
:1027800009F040E08091E8008E778093E8006FCFF9
:1027900044914093F1003196215031090196E8CFE0
:1027A000803809F04EC08091E800877F8093E80070
:1027B0008091E5038093F1009DCE811142C010917C
:1027C000E8031230F0F58091E800877F8093E800FD
:1027D0001093E5030E941108112311F084E005C055
:1027E0008091E30087FDFACF81E08093E40342E02B
:1027F00061EC81E00E94300842E261EC84E00E94DA
:10280000300842E261EC82E00E94300842E260EC73
:1028100083E00E9430088091E40313C08091E803B4
:10282000813079F481E0933009F080E08093E30314
:102830001092E9008091E800877F8093E8000E9471
:1028400011088091E80083FF0AC08091E800877F2B
:102850008093E8008091EB0080628093EB00AA9661
:10286000E3E00C9416361092D7030E9467112FEF05
:1028700084E39CE0215080409040E1F700C00000DC
:1028800088E19AE00FB6F894A895809360000FBE97
:1028900090936000FFCF882321F00E94400C0E949B
:1028A0002A110895882339F09091D703982B90939B
:1028B000D7030E942A110895882349F19CEF980FAD
:1028C000913A80F4EAEBF1E020EC31E09191891348
:1028D00003C0DF0111971C922E173F07B9F70E9422
:1028E0002A11089590E2980F983050F4877091E083
:1028F00001C0990F8A95EAF7892F0E94400CEFCF0B
:1029000093E3980F933118F460E00E9453100895F8
:102910000F931F93CF93C82F882341F18CEF8C0F17
:10292000813AB0F50AEB11E080EC91E0F8012191D9
:10293000C21701F18E179F07D1F7EFEF80E0D801A2
:102940009D918D01C91781F0EF3F19F4911101C0DC
:10295000E82F8F5F863099F7EF3F31F00E2E000C95
:10296000FF0BE854FE4FC2830E942A11CF911F91A2
:102970000F910895EAEBF1E02191C21303C0DF014A
:1029800011971C928E179F07B9F70E942A11D5CF75
:1029900080E28C0F883068F4C77021E030E001C01D
:1029A000220FCA95EAF78091D703822B8093D70331
:1029B000DBCF83E38C0F8331C8F661E08C2F0E945C
:1029C0005310D4CF1F93CF93DF93182FEB010E94A6
:1029D00088148FE99FE00197F1F700C0000021976C
:1029E000C1F7812F0E945C14DF91CF911F91089550
:1029F0000F931F93CF93DF93EC01FC010190002014
:102A0000E9F78F0101501109C017D10728F0DF91B4
:102A1000CF911F910F91089589910E946A10F4CF70
:102A2000CF93DF93C9E4D3E060E0CE010E94053785
:102A30002196C11584E0D807B9F7DF91CF910895A9
:102A40001F93CF93DF93122F8530E0F46A30D0F4D8
:102A50004830C0F490E1699FE001112450E0440F38
:102A6000551FC40FD51F90EA899FC00DD11D112499
:102A7000632FCE0189960E940537612FCE018A9679
:102A80000E940537DF91CF911F910895AF92BF92B9
:102A9000CF92DF92EF92FF921F93CF93DF9388EE56
:102AA000C82E84E0D82ED0E07601C0E014C0F50135
:102AB00025913491412F6C2F8D2F0E94201582E09B
:102AC000A80EB11C1F5F183091F780E1E80EF11CD1
:102AD000CF5FCA3019F0570110E0E9CFDF5F80EA1D
:102AE000C80ED11CD53001F7DF91CF911F91FF9017
:102AF000EF90DF90CF90BF90AF90089588E290E084
:102B00000E9405370895CF93DF93D82FCFEF81111F
:102B1000C4E26C2F85E290E00E9405376FEFD1117F
:102B200061E086E290E00E9405376C2F87E290E03A
:102B30000E940537DF91CF91089580E00E948315B0
:102B400060E070E0CB010E947E150E9446150E9455
:102B5000101581E00E94831508950F931F93CF9362
:102B6000DF93853030F56A3020F5483010F520E1EC
:102B7000629F8001112450E0440F551F040F151F60
:102B800030EA839F000D111D1124C80189960E940F
:102B9000E136C82FD0E0DC2FCC27C8018A960E94EE
:102BA000E1369E01282BC901DF91CF911F910F9132
:102BB000089590E080E0F8CF462F7A3040F46830F6
:102BC00030F4853020F4672F0E94AD15089590E011
:102BD00080E00895CF92DF92FF920F931F93CF93DF
:102BE000DF936C010091A40380910402082BC4E0E0
:102BF000D0E010E0FC2EC8010C2E02C09595879500
:102C00000A94E2F780FD0CC02197A0F7F12C8F2DDC
:102C1000DF91CF911F910F91FF90DF90CF9008959A
:102C2000B6018C2F0E94DC150E94420B019761F3C4
:102C3000EECFCF93DF93EC010E94EA15BE010E9414
:102C4000DC150E94420BDF91CF910895FC01248195
:102C50002223C1F0808191810E94191692959F7064
:102C6000963091F058F4925F9F70923058F4803F04
:102C700019F030F4883E30F481E008959A5FF4CF83
:102C8000843FD1F380E00895883EB0F3813FD1F7CF
:102C9000F3CFA6E0B0E0EFE4F6E10C94FA35498317
:102CA0005A8349815A819923A1F0222391F0CA01C4
:102CB0000E94EA15182F682F89819A810E94850C3D
:102CC00069817A81812F0E94DC152696E3E00C94BD
:102CD0001636CA010E94510C182FF2CF88E290E0FC
:102CE0000E94E136682F70E090E080E0089585E270
:102CF00090E00E94E136843289F486E290E00E94FE
:102D0000E136813059F487E290E00E94E13691E0AB
:102D1000843209F090E0892F8170089580E0FCCF23
:102D2000B0E0A0E0E6E9F6E10C94F5356C017B013A
:102D300064E670E088E70E9435338C01E601EC0C14
:102D4000FD1C17FD0BC0FE01849164E670E00E943B
:102D5000A1338C012196CE15DF0599F70E94173417
:102D600081E00115110509F080E0CDB7DEB7E8E09C
:102D70000C9411368091CB039091CE03911103C036
:102D800091E089270895882369F062E070E086E386
:102D900094E00E949016811103C08091CB030895A6
:102DA0001092CB038091CB03EBCFCF93C091CB0399
:102DB0008091CE038823D1F00E943109605A754179
:102DC0008F4F9F4F6093C7037093C8038093C903CD
:102DD0009093CA03C11108C062E070E084E394E0FC
:102DE0000E949016811105C0C091CB038C2FCF910A
:102DF000089581E08093CB03F7CFB0E0A0E0E3E05B
:102E0000F7E10C94F13549015A016B017C010E94F4
:102E100060098401A4016A2D7B2D88E090E00E9466
:102E2000173794014A2D5B2DB601C70100E20E94BD
:102E30009A36622F84E290E00E940537CDB7DEB764
:102E4000ECE00C940D36A3E0B0E0E9E2F7E10C947D
:102E5000F735082FF62E142FE22E8091960380FF6F
:102E600043C020919703201308C0909198039613B4
:102E700004C090919903941729F090919503926062
:102E800090939503E82FE695F0E0EA56FE4F908187
:102E9000909393038E7F823059F5412F193708F0B4
:102EA00048E79E012F5F3F4F6F2D802F0E947609CC
:102EB0004B8169818A810E94260F00939703F092CB
:102EC000980310939903EE2079F020919603609176
:102ED0009A0370919B03302F4F2D512F80919C03AB
:102EE00090919D030E94FD162396E6E00C94133604
:102EF000923019F410919903E0CF9630F1F6022F39
:102F0000DCCFE6E9F3E043812CE0421B08F440E02B
:102F100021E0628181810E9423170895E6E9F3E0B0
:102F200043812CE0420F08F44FEF21E06281818160
:102F30000E9423170895E6E9F3E0628121E1621B14
:102F400008F460E021E0438181810E942317089505
:102F5000E6E9F3E0628121E1620F08F46FEF21E01E
:102F6000438181810E9423170895E6E9F3E081817E
:102F700021E04381628181510E9423170895E6E98F
:102F8000F3E0818121E0438162818F5E0E942317FB
:102F9000089580919A03882319F0815080939A03B1
:102FA0002091960330919703409198035091990393
:102FB00060919A0370919B0380919C0390919D0373
:102FC0000E94FD16089580919A03833018F48F5F54
:102FD00080939A0320919603309197034091980330
:102FE0005091990360919A0370919B0380919C0387
:102FF00090919D030E94FD160895E6E9F3E083E0B9
:10300000808311828FEF828388E783831482A3E910
:10301000B3E012968C911297836012968C9375810F
:1030200023E030E04FEF58E760E0868197810E940F
:10303000FD1608959091790292FB222720F9281716
:1030400079F080FB92F99093790260917802709107
:10305000790284E090E00E94233782E00E94EB0C2A
:10306000089590E080E00E94EF36863E9E4F19F46E
:103070000E947716089580E00895B0E0A0E0E3E4B0
:10308000F8E10C94F6357901C82F880FDD0B411556
:103090005105A9F0FE0193E0EE0FFF1F9A95E1F7AD
:1030A000E65FFE4F81819281885F9D4F208130E0F5
:1030B0004217530708F49A01A9010E94D836CE019D
:1030C0000E946135D82E8823D1F001151105B9F081
:1030D00083E0CC0FDD1F8A95E1F7FE01E65FFE4F2E
:1030E000438150E00417150708F4A801C65FDE4FBE
:1030F0006C817D81685F7D4FC7010E94D8368D2D20
:10310000CDB7DEB7E7E00C941236A5E0B0E0EBE80F
:10311000F8E10C94F3358D83E62E5A01F22E680106
:10312000809160068A3028F080E02596EAE00C94D1
:103130000F368D818830C4F31A8219828A836B839B
:103140002C8363E070E0CE0102960E943D098983E2
:10315000E0923201F092450110E000E030E020E022
:1031600044E050E0BE016F5F7F4F84E00E943D1855
:103170008823D1F24E2D50E030E020E0B50185E00B
:103180000E943D18882381F230E020E041E050E0C9
:10319000BE016B5F7F4F86E00E943D18882321F2BD
:1031A0000F2D10E0960150E040E070E060E087E015
:1031B0000E943D18BACFABE0B0E0E1EEF8E10C942C
:1031C000F93588E0E6E9F3E0DE01119601900D9211
:1031D0008A95E1F78091930390919403A0919503D0
:1031E00089879A87AB872B8540916E0250916F0239
:1031F00060917002709171023FB7F8948091D20390
:103200009091D303A091D403B091D5033FBF841B09
:10321000950BA60BB70B84369105A105B10510F4EB
:103220002223C1F010E000E030E020E04BE050E06D
:10323000BE016F5F7F4F83E00E943D18882369F0D5
:103240000E94310960936E0270936F028093700246
:10325000909371021092950381E02B96E4E00C9418
:103260001536A4E0B0E0E7E3F9E10C94F9354091BC
:103270006A0250916B0260916C0270916D022FB7DF
:10328000F8948091D2039091D303A091D403B0918C
:10329000D5032FBF841B950BA60BB70B11E084360B
:1032A0009105A105B10518F10E94C30F6E5F7F4F14
:1032B0008F4F9F4F69837A838B839C8310E000E05C
:1032C00030E020E044E050E0BE016F5F7F4F82E0DD
:1032D0000E943D18182F882351F00E9431096093F5
:1032E0006A0270936B0280936C0290936D02812F3F
:1032F0002496E4E00C941536A6E0B0E0E2E8F9E1AB
:103300000C94F7357B0101E010E09E012A5F3F4FEE
:1033100050E040E070E060E080E00E943D18182F2F
:10332000882309F453C0409166025091670260916E
:103330006802709169022FB7F8948091D20390913E
:10334000D303A091D403B091D5032FBF841B950B59
:10335000A60BB70B84369105A105B10548F465E0CD
:1033600070E089E092E00E943D099E81891771F129
:1033700005E010E09E012F5F3F4F50E040E070E01D
:1033800060E081E00E943D18082F65E070E089E070
:1033900092E00E943D0911E09E81981310E01023F5
:1033A00001F10E9431096093660270936702809375
:1033B00068029093690285E0FE013196A1E6B2E0D1
:1033C00001900D928A95E1F711E00BC085E0E9E0EC
:1033D000F2E0DE01119601900D928A95E1F711114C
:1033E000EACF85E0E1E6F2E0D70101900D928A95FF
:1033F000E1F7812F2696E6E00C9413360E94DD0F4C
:103400008093090180910901882359F0109273017A
:1034100085E2809374010E948D0F81110E947534A2
:10342000089585E280937301F4CFA8E0B0E0EBE16A
:10343000FAE10C94FB3566EE7EEF90E080E00E94AE
:10344000233760E082E090E00E94053760E083E08F
:1034500090E00E9405371092040260E074E184E07D
:1034600090E00E94233760E086E090E00E940537FC
:103470006FEF87E090E00E94053740E050E0BA012E
:1034800088E090E00E94173760E084E290E00E94BC
:10349000053760E087E190E00E94053760E08CE04E
:1034A00090E00E94053760E08DE090E00E940537D3
:1034B00019821A821B821C821D821E821F8218861C
:1034C00048E050E068E170E0CE0101960E94F536D8
:1034D00040E050E0BA0180E290E00E94173780E0BF
:1034E0000E9483150E949D1540E050E0BA018FE0D4
:1034F00090E00E94173710929E0310929F03109243
:10350000A0031092A10382E390E090939F03809325
:103510009E0340919E0350919F036091A003709180
:10352000A10383E190E00E9417372896E2E00C9413
:10353000173628E030E043E060E086E30E945D3229
:103540000895ACE0B0E0E7EAFAE10C94F5354F837A
:10355000588769877A878B879C8780912E04882378
:1035600099F00E94991A80E50E94D5328AEB8A95DB
:10357000F1F700C00E94ED328878992780389105D4
:1035800009F487C00E9405330E948D0F882309F437
:103590006BC00E9431090091CF011091D0012091A0
:1035A000D1013091D2016B017C01C01AD10AE20A2B
:1035B000F30A97018601083011052105310508F449
:1035C00053C06093CF017093D0018093D101909349
:1035D000D20100913C0410913D0420913E043091B1
:1035E0003F04601B710B820B930B623371058105E5
:1035F000910580F410923204109231041092340438
:10360000109233041092360410923504109238044C
:103610001092370410913B040E94DD0F482FBE0129
:10362000695F7F4F81E394E0112309F45FC00E943A
:10363000360D00913B0410912E040E94DD0F41E0F5
:103640004827BE01695F7F4F85E394E0011709F4C5
:1036500050C00E94360D86E0FE013796AAE4B4E021
:1036600001900D928A95E1F786E0FE013796DE0122
:10367000119601900D928A95E1F729813A814B814B
:103680005C816D817E8180E090E02C96E8E00C9476
:1036900011360E94ED320E94ED327C010E94ED3223
:1036A00020E0E22AF82A0E94ED328C010E94ED32DD
:1036B00020E0022B182B0E940533F894B70180916B
:1036C0003104909132040E94160E9093320480933C
:1036D0003104B80180913304909134040E94160E95
:1036E000909334048093330478944ECF0E94BC0DA1
:1036F000A0CF0E94BC0DAFCFCF93DF93D82FC62FA2
:103700000E94991A8D2F80680E94D5328C2F0E94BA
:10371000D5320E9405338FEC92E00197F1F700C09B
:103720000000DF91CF910895682F893708F068E78E
:103730006093390491E090933A0490912E04992378
:1037400059F06150811101C064E08FE00E947C1B40
:1037500060E080E50E947C1B0895FB0180810E944F
:10376000941B089590913904911101C095E0282F80
:10377000880F330BA901490F511DCA0118161906EC
:1037800014F081E090E00E94941B0895CF93C82F1D
:103790000E94991A8C2F0E94D5328FE792E00197F0
:1037A000F1F700C000000E94ED32C82F0E940533DF
:1037B0009AE69A95F1F700C08C2FCF910895CF9398
:1037C000DF930E945532269A0E94991A6AE58AE38D
:1037D0000E947C1B2FEF80E792E0215080409040B8
:1037E000E1F700C0000082E00E94C61B83E00E9457
:1037F000C61B84E00E94C61B85E00E94C61B86E0B3
:103800000E94C61B60E080E10E947C1B80E00E9459
:10381000C61BD82F81E00E94C61BC82F0E9405330B
:10382000D23419F481E0C13009F080E081708093D6
:103830002E04882341F064E08FE00E947C1B60E04E
:1038400080E50E947C1BDF91CF9108951F920F921B
:103850000FB60F9211242F933F934F935F936F9363
:103860007F938F939F93AF93BF93CF93DF93EF9308
:10387000FF93D091E900DF708091EC00C82FC170F8
:1038800080FDC0E81092E9008091F000877F80936E
:10389000F00078940E9473111092E9008091F0007A
:1038A00088608093F000CD2BCF70C093E900FF912A
:1038B000EF91DF91CF91BF91AF919F918F917F91C8
:1038C0006F915F914F913F912F910F900FBE0F908D
:1038D0001F9018951F920F920FB60F9211242F93DD
:1038E0003F934F935F936F937F938F939F93AF9388
:1038F000BF93EF93FF938091E10082FF09C0809115
:10390000E20082FF05C08091E1008B7F8093E1009F
:103910008091DA0080FF24C08091D80080FF20C011
:103920008091DA008E7F8093DA008091D90080FF49
:103930009DC080E189BD82E189BD09B400FEFDCF53
:1039400081E08093E4038091D603811109C00E9435
:10395000C1070E9462088091E20084608093E200C7
:103960008091E10080FF17C08091E20080FF13C0CA
:103970008091E2008E7F8093E2008091E20080617E
:103980008093E2008091D80080628093D80019BCB7
:1039900085E08093E4038091E10084FF2BC0809157
:1039A000E20084FF27C080E189BD82E189BD89B53D
:1039B000982F917080FFFBCF8091D8008F7D8093EE
:1039C000D8008091E1008F7E8093E1008091E20039
:1039D0008F7E8093E2008091E20081608093E2001C
:1039E0008091E503882309F447C084E08093E403D1
:1039F0008091E4038091E10083FF27C08091E20081
:103A000083FF23C08091E100877F8093E10082E003
:103A10008093E4031092E5038091E1008E7F809310
:103A2000E1008091E2008E7F8093E2008091E200CD
:103A300080618093E20042E060E080E00E94300814
:103A40008091F00088608093F000FF91EF91BF912A
:103A5000AF919F918F917F916F915F914F913F9126
:103A60002F910F900FBE0F901F90189519BC1092B8
:103A7000E4031092D60374CF8091E30087FD93E0B6
:103A80009093E403B5CF78941F921FB61F92112430
:103A90008F939F93AF93BF938091D2039091D30361
:103AA000A091D403B091D5030196A11DB11D8093BF
:103AB000D2039093D303A093D403B093D503BF91C3
:103AC000AF919F918F911F901FBE1F9018959C01E1
:103AD0004FB7F8948091D2039091D303A091D4036F
:103AE000B091D5034FBF821B930B08952FB7F89465
:103AF0008091D2039091D303A091D403B091D503C8
:103B00002FBF08952F923F925F926F927F928F9274
:103B10009F92AF92BF92CF92DF92EF92FF920F935C
:103B20001F93CF93DF938091CE03882309F4E1C0E4
:103B30008091CC039091CD030E94671DC29708F439
:103B4000B9C00E94761D9093CD038093CC0388E585
:103B500094E090935F0680935E060E948D0F882309
:103B600009F4E7C0C0914604DC2F88E794E00E9486
:103B7000EA10809149048F708A3008F0CCC0805DD3
:103B80000E946A1084E794E00E94EA108091480441
:103B90008F708A3008F0C1C0805D0E946A10DD23FA
:103BA00009F4C1C081E794E00E94EA108C2F82954D
:103BB0008F708A3008F0B3C0805D0E946A108C2F2D
:103BC0008F708A3008F0ADC0805D0E946A108CEF63
:103BD0008C0F853308F0A7C08DE694E00E94EA10B0
:103BE0008C2F8450990BFC01E85CFB4F84910E9460
:103BF0006A1084E994E00E94EA1080914C040E94CB
:103C0000EB0D0E94F81480914D040E94EB0D0E9470
:103C1000F81480914F040E94EB0D0E94F8148091DB
:103C20004E040E94EB0D0E94F8148BE894E00E9471
:103C3000EA1080913904811101C085E00E94EB0DEA
:103C400001960E94F81485E894E00E94EA108091A1
:103C50003B0481116CC080E30E946A1081E894E00B
:103C60000E94EA1080914004811101C084E0805DCF
:103C70000E946A1081EA94E00E94EA108091A403F5
:103C80000E94110D0E9410070E94F8148CE994E024
:103C90000E94EA108091A2030E9410070E94F8146B
:103CA0008AE994E00E94EA1080919E030E94100726
:103CB0000E94F8148091560490915704892BF1F5D5
:103CC0008091CB038823A9F00E9431090091C7039A
:103CD0001091C8032091C9033091CA03601B710B76
:103CE000820B930B6F3F7F4F8F4F9F4710F40E94C3
:103CF000BA16DF91CF911F910F91FF90EF90DF9057
:103D0000CF90BF90AF909F908F907F906F905F907B
:103D10003F902F900895895A33CF895A3ECF895AC0
:103D20004CCF895A52CF81E00E94F81062CF81E3D4
:103D300093CF88EA94E00E94EA10BCCF8091CE0332
:103D4000882309F4BDCF8091C6038111B9CF0E94A9
:103D5000D51620915604309157042115310509F4E8
:103D6000AFCF80E041E050E0082F10E01A01082EAC
:103D700002C0220C331C0A94E2F7B10162237323C0
:103D8000672B11F48F5FF0CF9091C50390FF95C022
:103D9000880F880F880F80936D0110927001895FE2
:103DA00080936E0183E08093710124E630E047E068
:103DB00050E06BE671E088E70E94CF33892B09F071
:103DC0007FCFA80125E0440F551F2A95E1F7809188
:103DD000C50380FF84C0E5EAF3E080E2DF011D92C5
:103DE0008A95E9F7A3EAB1E00FE911E087EAC82E66
:103DF00081E0D82E97E0592E772473948D91E801B5
:103E000029918E01240F352F311D285A3B4FE82F61
:103E1000F0E0EB55FC4F90E080E0652C681A872CB1
:103E2000082E01C0880C0A94EAF77901A12CE70159
:103E3000B9907E01B820662D6A196770962E062EFD
:103E4000000C770BDB2D01C0DD0F9A94EAF771951A
:103E5000619571096770772701C0B6946A95EAF792
:103E6000BD2A6081962E9B289082A39468E0A612BA
:103E7000DECF019631968830910579F6CA16DB06B9
:103E800009F0BCCF04E610E020E230E045EA53E060
:103E900060E488E70E94F033892B09F011CFE1013B
:103EA000C095D0958091560490915704C823D9238A
:103EB000D0935704C093560403CF8295880F807621
:103EC00080936D0198013695279536952795209317
:103ED0007001815E80936E012093710166CF485A14
:103EE0005B4F04E610E020E230E0D2CF0E948D0F5D
:103EF000882319F00E94761D08950E94C30FCB01FC
:103F0000089560919603669570E041E050E08AE67E
:103F100091E00E94BE36892B19F481E080939403CE
:103F20000E94761F90938E0380938D03809195035A
:103F300084608093950308959091960390FF39C013
:103F40009170811137C09260909396038091950390
:103F5000816080939503662391F0209196033091C0
:103F60009703409198035091990360919A0370913F
:103F70009B0380919C0390919D030E94FD1660918C
:103F80009603669570E041E050E08AE691E00E9479
:103F9000BE36892BB1F00E94590981E080939003CD
:103FA00020E04091990360919803809197030E94CB
:103FB00023170895893010F09061C6CF880F982B91
:103FC000C3CF0E94811FE9CF8091960386958150CF
:103FD00009F488E061E00E949C1F08958091960397
:103FE00086958F5F893008F081E061E00E949C1F18
:103FF00008959091960390FF08C09695981728F021
:10400000961718F40E94EE1F089561E00E949C1F0D
:10401000089584E00E94020D0E94761D9093AC02E8
:104020008093AB0282E08093AD020895AEE1B0E0F0
:10403000ECE1F0E20C94F73540912804509129040A
:1040400060912A0470912B0480912C0490912D048E
:104050000E94A11A209328043093290440932A0433
:1040600050932B0460932C0470932D0486E0E8E2B7
:10407000F4E0DE01179601900D928A95E1F786E053
:10408000FE013796DE011D9601900D928A95E1F7AB
:1040900086E0FE013D96DE01119601900D928A9513
:1040A000E1F786E0FE013196A8E2B4E001900D92BE
:1040B0008A95E1F786E0E8E2F4E0DE0159960190A6
:1040C0000D928A95E1F786E0FE017996DE0117965A
:1040D00001900D928A95E1F70B8DEC8C9E2D902B23
:1040E0008091AD02992309F41DC1002E000C110B23
:1040F0000E2C000CFF088230F1F188F4813009F4B5
:10410000E8C00E94761D9093AC028093AB0281E0E0
:104110008093AD021092A3031092A20332C08330A9
:1041200099F1843071F7980117FF04C022273327D3
:10413000201B310BC701F7FE04C0882799278E1971
:104140009F09880F991F281739070CF042C08091EA
:10415000A7029091A802E80EF91E40E0F7FE17C1F1
:104160007EECE7167FEFF7067CF1F092A802E09272
:10417000A70280E041C00E94761D9093AC0280931C
:10418000AB0280E020E069C0C701F7FE04C08827C9
:1041900099278E199F09980117FF04C022273327FA
:1041A000201B310B280F391F8091A9029091AA0280
:1041B000821B930B9093AA028093A90218161906EA
:1041C00004F780E020E045C022E3E20EF11C4E5CE3
:1041D000C5CF8091A5029091A602080F191F80E01B
:1041E00017FFDFC00E3C9FEF19070CF46BC0109354
:1041F000A6020093A50240E0082E000C990B62E392
:1042000070E00E943C368091A10381115FC081E083
:1042100090E0689F9001699F300D789F300D1124C8
:10422000642F772761950CF47095CB0162E370E001
:104230000E943C368091A00341E050E0882311F0B9
:104240004FEF5FEF649FC001659F900D749F900DCD
:104250001124F12CE12C10E000E00987EA868B871D
:104260002C8786E0FE013796DE01119601900D92B3
:104270008A95E1F786E0FE013196DE0153960190C2
:104280000D928A95E1F786E0FE017396DE0117969E
:1042900001900D928A95E1F786E0FE013796A8E23B
:1042A000B4E001900D928A95E1F70E9421108111EE
:1042B0006BC08091AE021092AE0281706E96E6E005
:1042C0000C9413360E5C1F4F8E5C8ACF8FEF9FEFDE
:1042D000A0CFC701F7FE04C0882799278E199F0930
:1042E000980117FF04C022273327201B310B820FB0
:1042F000931F2091A2033091A303820F931F9093E9
:10430000A3038093A20320919E0330919F03821701
:1043100093070CF436CF1092A3031092A2030E94CD
:1043200009202FCF823071F048F4813019F11092BA
:10433000A3031092A2031092AD0243CF853008F47C
:1043400040CFF5CF8091AB029091AC020E94671DE7
:10435000893E934008F435CF1092AD0284E00E946C
:10436000DE0C1092A8021092A7021092A6021092E0
:10437000A50227CF8091AB029091AC020E94671DED
:10438000C39708F41ECFD3CF81E090E094CF83E3AE
:10439000E816F1040CF4E9CE62E3E61AF1084253A0
:1043A000DDCE033311050CF422CF025311098253E1
:1043B00017CFA4E1B0E0EFEDF1E20C94ED358C0104
:1043C000DC0114968C911497882309F4BEC021E077
:1043D0004C9111965C91119712966C9112971396CD
:1043E0007C91139715969C910E9449167C01F801C7
:1043F0008581882309F46AC1C701975780389105E0
:1044000008F064C1FFE0FE1508F48FC08FEF93E061
:104410000E94E136811189C069E4A62E63E0B62EC0
:10442000E1104DC0FE01339686E0DF011D928A95B2
:10443000E9F75AE0452E7501BFEFEB1AFB0AC501FB
:104440000E94E13689831A82882309F46EC0813084
:1044500009F07FC06501E2E0CE0ED11CC7010E94C9
:10446000E1368A83882309F460C09FEF980F933068
:10447000A0F5F3E0AF0EB11CC6010E94E1368B83BC
:10448000882309F452C01C82DE0111967D01F701D8
:104490002081222381F2213009F0BAC091818281EA
:1044A000913009F058C0F2E0EF0EF11C65E070E0C9
:1044B000893311F460E570E00E94E21453C0A11446
:1044C00024E0B20691F1C5010E94E136811101C0DC
:1044D000EA943FEFA31AB30AA3CF56018430A1F6A2
:1044E00042E0E42EF12C56012FEFA21AB20AC601C7
:1044F0000E94E136E1E0F0E0EC0FFD1FEE0DFF1D44
:104500008083882391F08C3741F4E2E0F0E0EC0FF7
:10451000FD1FEE0DFF1D1082B7CF3FEFE31AF30A28
:10452000650187E0E816F104F1F68091F9018770E2
:1045300061F0D80115968C91882339F08091790229
:1045400082FF03C082E00E94EB0C6496E0E10C94D1
:104550000936570199CF923039F522E0E20EF11C6D
:104560000E948814FFEFEF1AFF0A8FE99FE001977E
:10457000F1F700C00000AFE9BFE01197F1F700C00C
:104580000000EFE9FFE03197F1F700C000008FE98C
:104590009FE00197F1F700C00000AFE9BFE011977D
:1045A000F1F700C0000073CF933031F432E0E30E36
:1045B000F11C0E945C14D6CF943021F08FEFE81AE2
:1045C000F80AD0CF92E0E90EF11C30E020E0B7010C
:1045D0006F5F7F4FD70111964C918053990B8A30B2
:1045E000910558F02150310908F4BCCFEFE9FFE004
:1045F0003197F1F700C00000F5CF429EF001439ED5
:10460000F00D11249C012E0F3F1F842F7B01DFCF63
:10461000E22FF0E0E557FE4F5490822F8695869565
:10462000869590E0FC01E558FE4F64902770712C50
:10463000022E02C0759467940A94E2F731E0632277
:104640007724FC01E559FE4F8490912C022E02C084
:10465000959487940A94E2F7A1E08A229924FC01B8
:10466000E55AFE4FC490D12C02C0D594C7942A9528
:10467000E2F7B1E0CB22DD246114710419F081EE80
:104680000E9488148114910419F086EE0E94881407
:10469000E9E365E070E05E1202C060E570E0852D40
:1046A0000E94E2148114910419F086EE0E945C14B9
:1046B0006114710419F081EE0E945C14C114D104DC
:1046C00009F450CF65E070E08CE2F6CEF09247043A
:1046D000E0924604F801808191819093490480938F
:1046E0004804970120543E472A30310508F09EC007
:1046F000F901EB5BF84C0C94723686E0E8E2F4E0EA
:10470000DE01199601900D928A95E1F786E0FE018F
:104710003996DE011F9601900D928A95E1F7FA8491
:1047200081E090E001C0880F2A95EAF7D80115963C
:104730002C91222341F1F82A83E08093AD028EE18F
:1047400090E09093AA028093A9020E940920F88A1F
:1047500086E0FE013F96DE01119601900D928A954A
:10476000E1F7CE0101960E9477078093AE0286E0C2
:10477000FE013196A8E2B4E001900D928A95E1F72E
:104780000E942110D2CE8095F822DFCFF8018581DA
:10479000882321F084E08093AD02C7CE0E940920D7
:1047A000C4CED80115968C91882309F4BECE809191
:1047B0009E0390919F03059690939F0380939E0381
:1047C00040919E0350919F036091A0037091A103BB
:1047D00083E190E00E941737A8CEF80185818823F5
:1047E00009F4A3CE80919E0390919F030597853095
:1047F000910514F785E090E0DFCFD80115968C91F4
:10480000882309F492CE8091A00391E089278093B8
:10481000A003D6CFF8018581882309F486CE809144
:10482000A10391E089278093A103CACF85818823C2
:10483000F9F08091AD028350823008F4AFCFEAE7FF
:10484000F1E08AE891E021913191E216F30681F0DE
:104850008E179F07C1F71092AD0284E00E94DE0C14
:104860001092A8021092A7021092A6021092A5021E
:10487000C7019A95F70181159F4108F4FF27D801D8
:1048800015968C91E13DF10540F0E93DF10578F098
:10489000E730BEE7FB0709F441C0882361F0FE570B
:1048A000EA30F10540F4E15BF84C0C947236682F65
:1048B0008E2F0E945310F8018581811158C3809179
:1048C000D7038272F701E052F847E531F10508F0AD
:1048D000A7C0E75AF84C0C94723680E00E94941BF3
:1048E0001092400422CE409139045091400450FB74
:1048F00047F95695537060E070E08FE090E06ACF22
:1049000081E00E94B21B11CE8FEFFBCF8AE0F9CF7E
:1049100086EFF7CF90913B0481E089270E94220D1A
:1049200004CE80914004811101C084E08F5F18168D
:104930000CF081E0883008F087E080934004F5CDEA
:1049400080914004811101C084E08150F0CF8091BA
:10495000960380FF1EC0282F2E7F20939603309150
:104960009703409198035091990360919A03709135
:104970009B0380919C0390919D030E94FD160E94D1
:104980005909809195038160809395030E94DB0E05
:10499000CCCD81608093960361E086950E949C1F38
:1049A000C4CD44EE5FE16EEE7FE10E945309BDCDC0
:1049B0004EEE5FE164EE7FE1F8CF45EB57E16FEB40
:1049C00077E1F3CF4FEB57E165EB77E1EECF4BE9C2
:1049D00057E168EA77E1E9CF48EA57E16BE977E127
:1049E000E4CF41E857E16EE877E1DFCF4EE857E1E9
:1049F00061E877E1DACF49EC57E163EE77E1D5CFB3
:104A000043EE57E169EC77E1D0CF61E081E0C6CFBA
:104A100065E082E00E94F91F88CD68E086E0FACF69
:104A2000F7E7EF16FCE7FF0609F460C028E7E21697
:104A30002CE7F20609F45EC0F8018581E080F18080
:104A4000882309F49FC0C7010E94EA15D82E682F59
:104A5000C7010E94850CB7018D2D0E94DC150E94B4
:104A6000420B7C01882ED8011596AC9015971696AE
:104A70009C9092943FE093228091F9018770F1F02D
:104A8000CA2CAA20E1F08F2D807F803451F080E283
:104A90008E0D883098F0911004C08F2D807E80326A
:104AA00069F08091790282FF09C082E00E94EB0CDC
:104AB0008091F9018770CC24C3948111C12CBF2C43
:104AC000B2942FE0B222BBE0BB1508F4C3C0EB2DBB
:104AD000F0E0E259F84C0C94723681E00E94020D2D
:104AE00043E062E081E00E94BE0C1FCD81E00E94A5
:104AF000DE0CF6CF82E0FBCF33E0E3163CE7F306B3
:104B000071F160F4E1149CE7F906D1F0A1E0EA1636
:104B1000ACE7FA0609F090CF0E943314BBE5EB1620
:104B2000BCE7FB0669F1ECE5EE16ECE7FE06F1F0FA
:104B3000FAE5EF16FCE7FF0609F07ECF81E01DC025
:104B40001092D7030E9467112FEF34E38CE02150BD
:104B500030408040E1F700C000000E9420096FEF64
:104B60007FEF90E080E00E942337D6CF80917902DA
:104B700082FB882780F991E089270E941A185CCF70
:104B800080E0FBCFC7010E94510CD82E64CFEF2DDF
:104B9000EF70DE2E8F2D807F19F0D29490EFD92206
:104BA000AA20B9F0DD2069F080E28E0D883010F087
:104BB000811009C08091D703D82AD092D7030E94D0
:104BC0002A118E2D45C080910302D82AD09203026B
:104BD000F6CF8E2D0E945C14DD20E1F180E28E0D77
:104BE000883010F0811004C08D2D0E94400C06C04A
:104BF000D09480910302D822D09203020E942A11FD
:104C000029C0FF2DFF70DF2E8F2D807F803219F09D
:104C1000D29480EFD822882059F021E0821609F43E
:104C200081C0AA2009F48DC0992009F44FC0C9CFD2
:104C30008091790282FD46C0AA20F1F1DD2039F091
:104C40008091D703D82AD092D7030E942A1180E0FE
:104C50000E948814AB2DA850BB0B149710F40E942F
:104C6000B20FCC20A9F08091F90180FD11C0F801AC
:104C700015828695869586950E94020DC8010E9430
:104C8000D9218091F9018695869586950E94DE0C42
:104C900020E0D8014C9111965C91119712966C917D
:104CA000129713967C91139714968C9114971596DE
:104CB0009C910E94491649CC80E00E945C14DD2042
:104CC00049F292CFAA20A1F0911004C08D2D0E942C
:104CD0005214C0CF31E09312BDCF809102029D2DBE
:104CE0009823D91609F4B6CFD82AD0920202B2CFAF
:104CF0009110B0CF8D2D0E944B14909102028D2DFA
:104D0000892329F08D2D809589238093020280913B
:104D1000D3019D2D982309F49DCFD094D822D09211
:104D2000D30198CFAA2029F085E0891508F492CF05
:104D3000CDCF94E0991508F48DCF8D2D0E944B14A2
:104D400089CF9920D1F3A9E38A1209C1BFEFE7EE19
:104D5000F3E0B150E040F040E1F700C000008E2DDC
:104D60000E945C1477CF6A2D8E2D0E94531072CF53
:104D70008F2D837091F5A1106DCF4E2D42954695E4
:104D80004770440F440F8E2D8F70042E01C0880F82
:104D90000A94EAF72E2D2071E4FE07C02FE030E0E0
:104DA00001C0220F4A95EAF720953F2D369536959A
:104DB0003370323069F050F440910402313029F000
:104DC000822B84230E940E0D45CF842B822BFACF99
:104DD000282B809104028227F5CF8695AA2011F016
:104DE0008F2D8170882309F435CF4E2D429546953D
:104DF0004770440F440F8E2D8F70042E01C0880F12
:104E00000A94EAF72E2D2071E4FE07C02FE030E06F
:104E100001C0220F4A95EAF720953F2D3695369529
:104E20003370323069F050F44091A403313029F0EE
:104E3000822B84230E94BB0C0DCF842B822BFACFB4
:104E4000282B8091A4038227F5CF9F2D9F70F92EE8
:104E5000AA2029F0892F0E94020D8E2D38CF8E2D89
:104E60000E944B148F2D0E94DE0CF4CE8E2DA2EFEB
:104E70008A16B1F1A81570F0B0EF8B16D1F0E1EF02
:104E80008E1691F0AA2009F45EC091109ACE8F2D53
:104E90008F712AC0F3EF8F1651F124EF8212F2CFF7
:104EA0008091790282FD2FC08F2D8F71AA20D9F2B7
:104EB0001BC0AA2081F034E0391508F4CBCE2F2D89
:104EC0002F7181E090E001C0880F2A95EAF7909158
:104ED000A4038927AFCF85E0891508F4BBCEEFCFB7
:104EE0008F2D8F71A110BFCF0E94020DB3CE80E035
:104EF000AA2009F49FCF9F2D9F7181E001C0880FE8
:104F00009A95EAF797CFAA2099F09F2D9F71F92ED5
:104F1000892F0E94020D8091790282FF07C0A8E0CC
:104F2000FA9EC001112483608093F9018F2DDCCF9C
:104F300081E00E94EB0CB1E0B91508F08BCE82E065
:104F40000E94EB0C87CE992079F0893341F4EFEF82
:104F5000F7EE23E0E150F0402040E1F7FECE8FE194
:104F60009EE40197F1F7F9CE8F2D8F717CCFB7E7D3
:104F7000EB16BCE7FB0609F4B0CDE8E7EE16ECE76C
:104F8000FE0609F0B9CD82E0A9CDCF93DF938091E1
:104F9000F801807F09F04DC08091F701882309F462
:104FA00048C0E09127045091EE03C091F301D091E5
:104FB000F2016091F4017091F50147E05E17C9F1CB
:104FC0008E2F90E0E49FF0011124E151FC4F2481E9
:104FD000222391F1489FF001499FF00D1124DF0138
:104FE000A151BC4F11962C9111972C1325C02C91D7
:104FF0002D1322C015962C91159721111DC01296C4
:105000002D913C91261B370B283C3105A8F480914B
:10501000F8018F7080618093F801EB50FC4F808124
:105020008F708061808382EF91E00E94D9210E947D
:10503000470CDF91CF910895FC013196E770BECF08
:10504000A4E1B0E0E6E2F8E20C94F1358C0186E0F0
:10505000F801DE011F9601900D928A95E1F7F801A3
:105060008481E58092EFA92E91E0B92E9091F6010E
:10507000911128C0882319F1EE20F1F0C8010E9497
:105080002616F82E8823C1F087E0F801D50101909B
:105090000D928A95E1F78091F601813031F480918B
:1050A000F2019091F3010E9419160E94C5278F2DDD
:1050B0006496ECE00C940D36C8010E94D921FF24BF
:1050C000F394F5CFD080C18082809380F090F70177
:1050D0002091F4013091F501A401421B530BFF20F4
:1050E00009F4D9C0483C510508F092C08823F9F270
:1050F0009091F3018091F801282F207F09F056C08C
:10510000C91214C09091F201D91210C0E11048C028
:105110008F7080618093F80182EF91E00E94D92125
:105120008091F801F8018683F12CC1CFE11038C0DD
:105130006C2D8D2D0E94A2076C2D8D2D0E94A20733
:10514000E82E8111F1CFDF86C88A8F8598890E9469
:105150001916292F22952F70243058F49F70223071
:1051600088F0992399F0F8019681907F79F4FE2CCC
:105170009ECF2A5F2F70223068F0C8010E94D9218B
:10518000EF2CF5CF992311F0882389F3805E8830C6
:1051900070F3F3CF803F58F3815F833070F7E7CF30
:1051A0008091F80181608093F801BECFC91207C0D9
:1051B0009091F201D91203C0EE2009F48DC0C8010C
:1051C0000E942616882309F477CFEE2009F474CFC5
:1051D0008091F801803288F02091F2013091F30142
:1051E000398728879B868A869091F6019C871D8641
:1051F0008E87CE0108960E94D92187E0F801A2EFA0
:10520000B1E001900D928A95E1F70E94C52757CF32
:105210009091F801292F207F51F482EF91E00E94B4
:10522000D92187E0F50111928A95E9F77DCF88238E
:1052300009F43DCF8091F3018C1110C08091F201EF
:10524000D8120CC0E1100AC09683C8010E94D9216F
:1052500087E0F50111928A95E9F729CFC8010E94EC
:105260002616882309F428CFEE2009F425CF809153
:10527000F801803210F22091F2013091F3013A836B
:1052800029839C828B829091F6019D831E828F835D
:10529000CE010196B0CF483C5105D0F6882309F4E1
:1052A0000ECFFE2CEE2009F407CF8091F3018C1174
:1052B00020C08091F201D8121CC08091F80180FDBD
:1052C0000FC0982F907F61F08683903F31F0982F28
:1052D000907F905F8F70892B8683C8010E94D921AF
:1052E00087E0F801A2EFB1E001900D928A95E1F715
:1052F000DECEC8010E94261681117FCF8091F80171
:1053000081608093F801C8010E94D921D0CEABE121
:10531000B0E0EDE8F9E20C94F9354E8B5F8B688FC5
:10532000798F8A8F9B8F192F9111109203021D8AFA
:1053300086E0FE017696DE011F9601900D928A9519
:10534000E1F70A8D002341F021E04F8558896989F2
:105350007A89C8010E9449160B8B1C8B87E0FE01DD
:105360003F96DE01189601900D928A95E1F7CE01E5
:1053700008960E94202881110CC087E0FE01389613
:10538000DE01119601900D928A95E1F78C858111CD
:105390000BC017E0809127049091EE03891333C06E
:1053A0006B96E4E00C9415362091EE0330E0C901D1
:1053B000019687709927409127044817190699F09C
:1053C00097E0929FD001939FB00D1124A151BC4F43
:1053D000FE01319601900D929A95E1F78093EE03CC
:1053E0000E94470CD6CF1092D7030E9467111092EB
:1053F000EE031092270487E0E2EFF1E0DF011D9257
:105400008A95E9F7C6CF819FC001112481519C4F35
:105410000E942028882321F28091270490E00196A1
:105420008770992780932704B5CFA6E0B0E0EBE121
:10543000FAE20C94F9350E94761D8C0180910502E8
:10544000909106028017910781F019821A820E94BA
:10545000761D682F49815A81792F80E090E00E9463
:10546000872910930602009305022696E4E00C9427
:105470001536ABE0B0E0EFE3FAE20C94ED35CE0187
:1054800001967C018AE0D7011D928A95E9F73701E0
:10549000570190E0C92E91E0D92E44244394512C19
:1054A000F60181916F010E94290E00C085E0882ECF
:1054B00081E0982EF40110E000E02191A22FA29546
:1054C000AF70B0E090968C9190E02F7002C09595EF
:1054D00087952A95E2F780FD0AC0D5018C9192014B
:1054E000002E01C0220F0A94EAF7822B8C930F5FE3
:1054F0001F4F0430110509F7F601319780810E9492
:105500003D0EB0EABA95F1F7EFEFAE1ABE0AF5E03C
:10551000CF16F1E0DF0621F6DD24D394D4018D917E
:105520004D010E94290E00C03D2D002E01C0330FF9
:105530000A94EAF7F70140E051E0DA012D91AD015C
:10554000822F82958F7090E0DC0190968C9190E094
:105550002F7002C0959587952A95E2F780FD03C0CC
:105560008081832B80833196B1E045305B0729F73A
:10557000F401319780810E943D0EE0EAEA95F1F74F
:105580000F5F1F4F0830110549F6E1E6F6E097017D
:105590002B5F3F4FD12CD3018D913D019191891704
:1055A00029F0DF0111978C93DD24D394261537055C
:1055B00091F700917702DD2041F181E08093C201F3
:1055C0000E94761D9093C1018093C0018091C0011B
:1055D0009091C1010E94671D0597D8F010E0065711
:1055E0001D4F45E050E061E676E0C8010E94CB36F1
:1055F000892B41F085E0E1E6F6E0D80101900D92BB
:105600008A95E1F71092C20104C08091C201811114
:10561000DDCF0E948D0FC82EE0917702811185C0E9
:10562000F0E0E657FD4F85E0A9E0B2E001900D9271
:105630008A95E1F765E070E089E092E00E943D091B
:105640008093080280900E0290900F02A0901002AA
:10565000B09011028091C3019091C401A091C50145
:10566000B091C60188169906AA06BB06D1F08092B1
:10567000C3019092C401A092C501B092C6010E94DC
:105680008D0F81110EC00E943109861A970AA80A4F
:10569000B90A8092720290927302A0927402B09240
:1056A00075028BE0E2E1F2E0D70101900D928A955C
:1056B000E1F7809112028695F0901302E0901402B7
:1056C000C090150200911B0210911C0210921C0246
:1056D000112301F110FF0BC0998190FF20C0909120
:1056E000960391609093960360E00E949C1F11FFC7
:1056F00006C020E04C2D6E2D8F2D0E94231712FF27
:1057000004C0002379F00E94811F13FF03C081E0D1
:10571000809390038D2D2B96E0E10C9409360E9426
:105720007E0FE5CF0E945909F0CF26E636E085E0EE
:10573000D9011D928A95E9F70E2F10E006571D4FEB
:10574000809160068A30A8F56CE779E1C8010E9473
:10575000520E882309F449C061E379E1C8010E942F
:10576000520E882309F441C06BED78E1C8010E9414
:10577000520E8823D1F11092600681E08093C90116
:105780000091760210E006571D4F45E050E066E6B6
:1057900076E0C8010E94CB36892B09F4BBCF85E0A7
:1057A000E6E6F6E0D80101900D928A95E1F7DC2C4F
:1057B000B1CF8091C7019091C8010E94671D843FBD
:1057C000914010F68091C901882309F4A3CF10926B
:1057D000C901E0917602F0E0E657FD4F95E0DF0168
:1057E0001D929A95E9F7D82E95CF809160068F3F4C
:1057F00031F08F5F809360068A3008F4BECF0E943C
:10580000761D9093C8018093C701DCCF1F921FB60D
:105810001F9211248F939F93AF93BF938091D103D5
:10582000811113C08091D2039091D303A091D4032E
:10583000B091D5034196A11DB11D8093D2039093E1
:10584000D303A093D403B093D503BF91AF919F919D
:105850008F911F901FBE1F901895CDB7DEB7A697EA
:105860000FB6F894DEBF0FBECDBF85B7806885BF89
:1058700085B7806885BF84B7877F84BF0FB6F894EB
:10588000A89580916000886180936000109260000C
:105890000FBE80E890E00FB6F8948093610090937B
:1058A00061000FBE80E29AE09093B7018093B60149
:1058B0000E94C1070E9462088091E2008460809388
:1058C000E20078948091E4038823A1F01091E9002C
:1058D0001F709091EC00892F817090FD80E8182B4B
:1058E0001092E9008091E80083FD0E9473111F70FF
:1058F0001093E90082E084BD93E095BD9AEF97BDD7
:1059000080936E00109272021092730210927402D1
:10591000109275020E947716811102C00E949D1597
:105920000E94FE19809109010E94FE1980910501D3
:105930000E943D0E809106010E943D0E809107015C
:105940000E943D0E809108010E943D0E00E011E092
:1059500075E0E72E71E0F72ED8018D918D010E9440
:105960003D0EE016F106C1F78091090195E0811125
:1059700090E09093770285E0891B809376020E94E5
:105980008D0F811102C00E947834E1E6F6E0AAE8AA
:10599000B2E011921D9226E0EB36F207D1F70E9499
:1059A0003118811102C00E94151A82E090E00E9415
:1059B000E13680937B0284E090E00E94EF36909382
:1059C0007902809378020E94392A8FE39CE901973B
:1059D000F1F700C000000E94392A80918A0280FFFE
:1059E00008C06FEF7FEF90E080E00E9423370E94B5
:1059F000200983E090E00E94E1360E940E0D0E9493
:105A00008D0F882309F498C180E08093C50380E856
:105A1000809355040E942F336BE070E082E292E0A5
:105A20000E9490168823E9F18091C50365E070E03B
:105A300081FD84C18DE192E00E949016882389F156
:105A40006DE070E08BE092E00E949016882349F1AF
:105A50000E943109605A75418F4F9F4F6093C70371
:105A60007093C8038093C9039093CA03E8E5F4E0F8
:105A700080E092E0DF019C011D9221503040E1F76F
:105A8000F0935F06E0935E068FEF9FEF90935704CD
:105A90008093560481E08093CE038093CB031092D1
:105AA000C60380917A02811178C00E943118811159
:105AB00004C00E94151A0E94FD1788E090E00E9421
:105AC000E9364B015C0184E290E00E94E136282F28
:105AD00030E040E050E060E070E080E090E000E224
